{
  "_format": "hh-sol-artifact-1",
  "contractName": "Switcher",
  "sourceName": "contracts/Switcher.sol",
  "abi": [
    {
      "inputs": [],
      "stateMutability": "payable",
      "type": "constructor"
    },
    {
      "anonymous": false,
      "inputs": [
        {
          "indexed": false,
          "internalType": "uint256",
          "name": "amount",
          "type": "uint256"
        }
      ],
      "name": "Deposit",
      "type": "event"
    },
    {
      "anonymous": false,
      "inputs": [
        {
          "indexed": false,
          "internalType": "address",
          "name": "_beneficiary",
          "type": "address"
        },
        {
          "indexed": false,
          "internalType": "address",
          "name": "_owner",
          "type": "address"
        },
        {
          "indexed": false,
          "internalType": "uint256",
          "name": "_healthRatio",
          "type": "uint256"
        }
      ],
      "name": "Management",
      "type": "event"
    },
    {
      "anonymous": false,
      "inputs": [
        {
          "indexed": false,
          "internalType": "address",
          "name": "_beneficiary",
          "type": "address"
        },
        {
          "indexed": false,
          "internalType": "address",
          "name": "_owner",
          "type": "address"
        },
        {
          "indexed": false,
          "internalType": "uint256",
          "name": "_amount",
          "type": "uint256"
        }
      ],
      "name": "Rebalance",
      "type": "event"
    },
    {
      "anonymous": false,
      "inputs": [
        {
          "indexed": false,
          "internalType": "uint256",
          "name": "_borrowedAmount",
          "type": "uint256"
        }
      ],
      "name": "VerifyEloan",
      "type": "event"
    },
    {
      "anonymous": false,
      "inputs": [
        {
          "indexed": false,
          "internalType": "address",
          "name": "token",
          "type": "address"
        },
        {
          "indexed": false,
          "internalType": "uint256",
          "name": "healthRatio",
          "type": "uint256"
        }
      ],
      "name": "VerifySettings",
      "type": "event"
    },
    {
      "anonymous": false,
      "inputs": [
        {
          "indexed": false,
          "internalType": "uint256",
          "name": "amount",
          "type": "uint256"
        }
      ],
      "name": "Withdrawal",
      "type": "event"
    },
    {
      "inputs": [],
      "name": "EULER_TESTNET",
      "outputs": [
        {
          "internalType": "address",
          "name": "",
          "type": "address"
        }
      ],
      "stateMutability": "view",
      "type": "function"
    },
    {
      "inputs": [
        {
          "internalType": "address",
          "name": "",
          "type": "address"
        }
      ],
      "name": "balances",
      "outputs": [
        {
          "internalType": "uint256",
          "name": "",
          "type": "uint256"
        }
      ],
      "stateMutability": "view",
      "type": "function"
    },
    {
      "inputs": [],
      "name": "borrowedToken",
      "outputs": [
        {
          "internalType": "address",
          "name": "",
          "type": "address"
        }
      ],
      "stateMutability": "view",
      "type": "function"
    },
    {
      "inputs": [],
      "name": "collateralToken",
      "outputs": [
        {
          "internalType": "address",
          "name": "",
          "type": "address"
        }
      ],
      "stateMutability": "view",
      "type": "function"
    },
    {
      "inputs": [
        {
          "internalType": "uint256",
          "name": "collateral",
          "type": "uint256"
        },
        {
          "internalType": "uint256",
          "name": "healthRatio",
          "type": "uint256"
        },
        {
          "internalType": "uint256",
          "name": "loan",
          "type": "uint256"
        }
      ],
      "name": "deposit",
      "outputs": [],
      "stateMutability": "payable",
      "type": "function"
    },
    {
      "inputs": [
        {
          "internalType": "address",
          "name": "",
          "type": "address"
        }
      ],
      "name": "healthRatios",
      "outputs": [
        {
          "internalType": "uint256",
          "name": "",
          "type": "uint256"
        }
      ],
      "stateMutability": "view",
      "type": "function"
    },
    {
      "inputs": [
        {
          "internalType": "uint256",
          "name": "newHealthRatio",
          "type": "uint256"
        }
      ],
      "name": "manage",
      "outputs": [],
      "stateMutability": "nonpayable",
      "type": "function"
    },
    {
      "inputs": [],
      "name": "owner",
      "outputs": [
        {
          "internalType": "address payable",
          "name": "",
          "type": "address"
        }
      ],
      "stateMutability": "view",
      "type": "function"
    },
    {
      "inputs": [
        {
          "internalType": "uint256",
          "name": "healthRatio",
          "type": "uint256"
        }
      ],
      "name": "rebalance",
      "outputs": [],
      "stateMutability": "nonpayable",
      "type": "function"
    },
    {
      "inputs": [],
      "name": "withdraw",
      "outputs": [],
      "stateMutability": "nonpayable",
      "type": "function"
    }
  ],
  "bytecode": "0x608060405273693faec006aebcae7849141a2ea60c6dd8097e256000806101000a81548173ffffffffffffffffffffffffffffffffffffffff021916908373ffffffffffffffffffffffffffffffffffffffff16021790555073931172bb95549d0f29e10ae2d079aba3c63318b3600160006101000a81548173ffffffffffffffffffffffffffffffffffffffff021916908373ffffffffffffffffffffffffffffffffffffffff16021790555073a3401dfdbd584e918f59fd1c3a558467e373dacc600260006101000a81548173ffffffffffffffffffffffffffffffffffffffff021916908373ffffffffffffffffffffffffffffffffffffffff160217905550733ebc39b84b1f856fafe9803a9e1eae7da016da36600360006101000a81548173ffffffffffffffffffffffffffffffffffffffff021916908373ffffffffffffffffffffffffffffffffffffffff160217905550600360009054906101000a900473ffffffffffffffffffffffffffffffffffffffff1673ffffffffffffffffffffffffffffffffffffffff16638948874960008054906101000a900473ffffffffffffffffffffffffffffffffffffffff166040518263ffffffff1660e01b8152600401620001d4919062000407565b60206040518083038186803b158015620001ed57600080fd5b505afa15801562000202573d6000803e3d6000fd5b505050506040513d601f19601f820116820180604052508101906200022891906200045a565b600460006101000a81548173ffffffffffffffffffffffffffffffffffffffff021916908373ffffffffffffffffffffffffffffffffffffffff160217905550600360009054906101000a900473ffffffffffffffffffffffffffffffffffffffff1673ffffffffffffffffffffffffffffffffffffffff16631b300582600260009054906101000a900473ffffffffffffffffffffffffffffffffffffffff166040518263ffffffff1660e01b8152600401620002e7919062000407565b60206040518083038186803b1580156200030057600080fd5b505afa15801562000315573d6000803e3d6000fd5b505050506040513d601f19601f820116820180604052508101906200033b91906200045a565b600560006101000a81548173ffffffffffffffffffffffffffffffffffffffff021916908373ffffffffffffffffffffffffffffffffffffffff16021790555033600660006101000a81548173ffffffffffffffffffffffffffffffffffffffff021916908373ffffffffffffffffffffffffffffffffffffffff1602179055506200048c565b600073ffffffffffffffffffffffffffffffffffffffff82169050919050565b6000620003ef82620003c2565b9050919050565b6200040181620003e2565b82525050565b60006020820190506200041e6000830184620003f6565b92915050565b600080fd5b6200043481620003e2565b81146200044057600080fd5b50565b600081519050620004548162000429565b92915050565b60006020828403121562000473576200047262000424565b5b6000620004838482850162000443565b91505092915050565b611bb8806200049c6000396000f3fe6080604052600436106100905760003560e01c80638da5cb5b116100595780638da5cb5b1461016d578063b2016bd414610198578063c710ccd6146101c3578063ee0c4be3146101ee578063f49930181461021757610090565b8062aeef8a1461009557806303a75d3d146100b157806327e235e3146100dc5780633ccfd60b1461011957806373c97f0514610130575b600080fd5b6100af60048036038101906100aa91906115a7565b610240565b005b3480156100bd57600080fd5b506100c661088f565b6040516100d3919061163b565b60405180910390f35b3480156100e857600080fd5b5061010360048036038101906100fe9190611682565b6108b5565b60405161011091906116be565b60405180910390f35b34801561012557600080fd5b5061012e6108cd565b005b34801561013c57600080fd5b5061015760048036038101906101529190611682565b610e85565b60405161016491906116be565b60405180910390f35b34801561017957600080fd5b50610182610e9d565b60405161018f91906116fa565b60405180910390f35b3480156101a457600080fd5b506101ad610ec3565b6040516101ba919061163b565b60405180910390f35b3480156101cf57600080fd5b506101d8610ee7565b6040516101e5919061163b565b60405180910390f35b3480156101fa57600080fd5b5061021560048036038101906102109190611715565b610f0d565b005b34801561022357600080fd5b5061023e60048036038101906102399190611715565b6113b3565b005b607d6064828561025091906117a0565b61025a91906117d1565b1161029a576040517f08c379a0000000000000000000000000000000000000000000000000000000008152600401610291906118ae565b60405180910390fd5b60008054906101000a900473ffffffffffffffffffffffffffffffffffffffff1673ffffffffffffffffffffffffffffffffffffffff166323b872dd3330866040518463ffffffff1660e01b81526004016102f7939291906118ce565b602060405180830381600087803b15801561031157600080fd5b505af1158015610325573d6000803e3d6000fd5b505050506040513d601f19601f82011682018060405250810190610349919061193d565b5060008054906101000a900473ffffffffffffffffffffffffffffffffffffffff1673ffffffffffffffffffffffffffffffffffffffff1663095ea7b3600160009054906101000a900473ffffffffffffffffffffffffffffffffffffffff167fffffffffffffffffffffffffffffffffffffffffffffffffffffffffffffffff6040518363ffffffff1660e01b81526004016103e792919061196a565b602060405180830381600087803b15801561040157600080fd5b505af1158015610415573d6000803e3d6000fd5b505050506040513d601f19601f82011682018060405250810190610439919061193d565b5082600760003373ffffffffffffffffffffffffffffffffffffffff1673ffffffffffffffffffffffffffffffffffffffff16815260200190815260200160002060008282546104899190611993565b9250508190555081600860003373ffffffffffffffffffffffffffffffffffffffff1673ffffffffffffffffffffffffffffffffffffffff16815260200190815260200160002081905550600460009054906101000a900473ffffffffffffffffffffffffffffffffffffffff1673ffffffffffffffffffffffffffffffffffffffff1663e2bbb15860006064848661052291906117d1565b61052c91906117a0565b6040518363ffffffff1660e01b8152600401610549929190611a2e565b600060405180830381600087803b15801561056357600080fd5b505af1158015610577573d6000803e3d6000fd5b50505050600360009054906101000a900473ffffffffffffffffffffffffffffffffffffffff1673ffffffffffffffffffffffffffffffffffffffff166373f0b43760008060009054906101000a900473ffffffffffffffffffffffffffffffffffffffff166040518363ffffffff1660e01b81526004016105fa929190611a57565b600060405180830381600087803b15801561061457600080fd5b505af1158015610628573d6000803e3d6000fd5b505050507f4d6ce1e535dbade1c23defba91e23b8f791ce5edc0cc320257a2b364e4e384268360405161065b91906116be565b60405180910390a16000600460009054906101000a900473ffffffffffffffffffffffffffffffffffffffff1673ffffffffffffffffffffffffffffffffffffffff16633af9e669306040518263ffffffff1660e01b81526004016106c0919061163b565b60206040518083038186803b1580156106d857600080fd5b505afa1580156106ec573d6000803e3d6000fd5b505050506040513d601f19601f820116820180604052508101906107109190611a95565b90507fdd18f0a2f0fac23c07b943121bcc23f2f948f8aaa82d2f76d554e356ca281f148160405161074191906116be565b60405180910390a1600560009054906101000a900473ffffffffffffffffffffffffffffffffffffffff1673ffffffffffffffffffffffffffffffffffffffff16630ecbcdab6000836040518363ffffffff1660e01b81526004016107a7929190611a2e565b600060405180830381600087803b1580156107c157600080fd5b505af11580156107d5573d6000803e3d6000fd5b50505050600260009054906101000a900473ffffffffffffffffffffffffffffffffffffffff1673ffffffffffffffffffffffffffffffffffffffff1663a9059cbb33836040518363ffffffff1660e01b815260040161083692919061196a565b602060405180830381600087803b15801561085057600080fd5b505af1158015610864573d6000803e3d6000fd5b505050506040513d601f19601f82011682018060405250810190610888919061193d565b5050505050565b600160009054906101000a900473ffffffffffffffffffffffffffffffffffffffff1681565b60076020528060005260406000206000915090505481565b600260009054906101000a900473ffffffffffffffffffffffffffffffffffffffff1673ffffffffffffffffffffffffffffffffffffffff166323b872dd3330600260009054906101000a900473ffffffffffffffffffffffffffffffffffffffff1673ffffffffffffffffffffffffffffffffffffffff166370a08231336040518263ffffffff1660e01b8152600401610968919061163b565b60206040518083038186803b15801561098057600080fd5b505afa158015610994573d6000803e3d6000fd5b505050506040513d601f19601f820116820180604052508101906109b89190611a95565b6040518463ffffffff1660e01b81526004016109d6939291906118ce565b602060405180830381600087803b1580156109f057600080fd5b505af1158015610a04573d6000803e3d6000fd5b505050506040513d601f19601f82011682018060405250810190610a28919061193d565b50600260009054906101000a900473ffffffffffffffffffffffffffffffffffffffff1673ffffffffffffffffffffffffffffffffffffffff1663095ea7b3600160009054906101000a900473ffffffffffffffffffffffffffffffffffffffff167fffffffffffffffffffffffffffffffffffffffffffffffffffffffffffffffff6040518363ffffffff1660e01b8152600401610ac892919061196a565b602060405180830381600087803b158015610ae257600080fd5b505af1158015610af6573d6000803e3d6000fd5b505050506040513d601f19601f82011682018060405250810190610b1a919061193d565b50600560009054906101000a900473ffffffffffffffffffffffffffffffffffffffff1673ffffffffffffffffffffffffffffffffffffffff1663d8aed14560007fffffffffffffffffffffffffffffffffffffffffffffffffffffffffffffffff6040518363ffffffff1660e01b8152600401610b99929190611a2e565b600060405180830381600087803b158015610bb357600080fd5b505af1158015610bc7573d6000803e3d6000fd5b50505050600460009054906101000a900473ffffffffffffffffffffffffffffffffffffffff1673ffffffffffffffffffffffffffffffffffffffff1663441a3e7060007fffffffffffffffffffffffffffffffffffffffffffffffffffffffffffffffff6040518363ffffffff1660e01b8152600401610c49929190611a2e565b600060405180830381600087803b158015610c6357600080fd5b505af1158015610c77573d6000803e3d6000fd5b5050505060008060009054906101000a900473ffffffffffffffffffffffffffffffffffffffff1673ffffffffffffffffffffffffffffffffffffffff166370a08231306040518263ffffffff1660e01b8152600401610cd7919061163b565b60206040518083038186803b158015610cef57600080fd5b505afa158015610d03573d6000803e3d6000fd5b505050506040513d601f19601f82011682018060405250810190610d279190611a95565b90507f4e70a604b23a8edee2b1d0a656e9b9c00b73ad8bb1afc2c59381ee9f69197de781604051610d5891906116be565b60405180910390a160008054906101000a900473ffffffffffffffffffffffffffffffffffffffff1673ffffffffffffffffffffffffffffffffffffffff166323b872dd3033624c4b4085610dad9190611ac2565b6040518463ffffffff1660e01b8152600401610dcb939291906118ce565b602060405180830381600087803b158015610de557600080fd5b505af1158015610df9573d6000803e3d6000fd5b505050506040513d601f19601f82011682018060405250810190610e1d919061193d565b50624c4b4081610e2d9190611ac2565b600760003373ffffffffffffffffffffffffffffffffffffffff1673ffffffffffffffffffffffffffffffffffffffff1681526020019081526020016000206000828254610e7b9190611ac2565b9250508190555050565b60086020528060005260406000206000915090505481565b600660009054906101000a900473ffffffffffffffffffffffffffffffffffffffff1681565b60008054906101000a900473ffffffffffffffffffffffffffffffffffffffff1681565b600260009054906101000a900473ffffffffffffffffffffffffffffffffffffffff1681565b6000600860003373ffffffffffffffffffffffffffffffffffffffff1673ffffffffffffffffffffffffffffffffffffffff1681526020019081526020016000205490506000600760003373ffffffffffffffffffffffffffffffffffffffff1673ffffffffffffffffffffffffffffffffffffffff168152602001908152602001600020549050818311156110de576000818385610fac9190611ac2565b610fb691906117d1565b9050600460009054906101000a900473ffffffffffffffffffffffffffffffffffffffff1673ffffffffffffffffffffffffffffffffffffffff1663e2bbb1586000836040518363ffffffff1660e01b8152600401611016929190611a2e565b600060405180830381600087803b15801561103057600080fd5b505af1158015611044573d6000803e3d6000fd5b50505050600560009054906101000a900473ffffffffffffffffffffffffffffffffffffffff1673ffffffffffffffffffffffffffffffffffffffff16630ecbcdab6000836040518363ffffffff1660e01b81526004016110a6929190611a2e565b600060405180830381600087803b1580156110c057600080fd5b505af11580156110d4573d6000803e3d6000fd5b505050505061130d565b60008184846110ed9190611ac2565b6110f791906117d1565b9050600260009054906101000a900473ffffffffffffffffffffffffffffffffffffffff1673ffffffffffffffffffffffffffffffffffffffff1663095ea7b3600160009054906101000a900473ffffffffffffffffffffffffffffffffffffffff167fffffffffffffffffffffffffffffffffffffffffffffffffffffffffffffffff6040518363ffffffff1660e01b815260040161119892919061196a565b602060405180830381600087803b1580156111b257600080fd5b505af11580156111c6573d6000803e3d6000fd5b505050506040513d601f19601f820116820180604052508101906111ea919061193d565b50600560009054906101000a900473ffffffffffffffffffffffffffffffffffffffff1673ffffffffffffffffffffffffffffffffffffffff1663d8aed1456000836040518363ffffffff1660e01b8152600401611249929190611a2e565b600060405180830381600087803b15801561126357600080fd5b505af1158015611277573d6000803e3d6000fd5b50505050600460009054906101000a900473ffffffffffffffffffffffffffffffffffffffff1673ffffffffffffffffffffffffffffffffffffffff1663441a3e706000836040518363ffffffff1660e01b81526004016112d9929190611a2e565b600060405180830381600087803b1580156112f357600080fd5b505af1158015611307573d6000803e3d6000fd5b50505050505b82600860003373ffffffffffffffffffffffffffffffffffffffff1673ffffffffffffffffffffffffffffffffffffffff168152602001908152602001600020819055507fb0a7c79e44a88691653a20ec4e610106ca20570a58b5740b484b7899cf12030233600660009054906101000a900473ffffffffffffffffffffffffffffffffffffffff16856040516113a693929190611b4b565b60405180910390a1505050565b6000600560009054906101000a900473ffffffffffffffffffffffffffffffffffffffff1673ffffffffffffffffffffffffffffffffffffffff1663d8aed1456000836040518363ffffffff1660e01b8152600401611413929190611a2e565b600060405180830381600087803b15801561142d57600080fd5b505af1158015611441573d6000803e3d6000fd5b50505050600460009054906101000a900473ffffffffffffffffffffffffffffffffffffffff1673ffffffffffffffffffffffffffffffffffffffff1663441a3e706000836040518363ffffffff1660e01b81526004016114a3929190611a2e565b600060405180830381600087803b1580156114bd57600080fd5b505af11580156114d1573d6000803e3d6000fd5b505050506000600460009054906101000a900473ffffffffffffffffffffffffffffffffffffffff1673ffffffffffffffffffffffffffffffffffffffff1663e2bbb1586000836040518363ffffffff1660e01b8152600401611535929190611a2e565b600060405180830381600087803b15801561154f57600080fd5b505af1158015611563573d6000803e3d6000fd5b50505050505050565b600080fd5b6000819050919050565b61158481611571565b811461158f57600080fd5b50565b6000813590506115a18161157b565b92915050565b6000806000606084860312156115c0576115bf61156c565b5b60006115ce86828701611592565b93505060206115df86828701611592565b92505060406115f086828701611592565b9150509250925092565b600073ffffffffffffffffffffffffffffffffffffffff82169050919050565b6000611625826115fa565b9050919050565b6116358161161a565b82525050565b6000602082019050611650600083018461162c565b92915050565b61165f8161161a565b811461166a57600080fd5b50565b60008135905061167c81611656565b92915050565b6000602082840312156116985761169761156c565b5b60006116a68482850161166d565b91505092915050565b6116b881611571565b82525050565b60006020820190506116d360008301846116af565b92915050565b60006116e4826115fa565b9050919050565b6116f4816116d9565b82525050565b600060208201905061170f60008301846116eb565b92915050565b60006020828403121561172b5761172a61156c565b5b600061173984828501611592565b91505092915050565b7f4e487b7100000000000000000000000000000000000000000000000000000000600052601260045260246000fd5b7f4e487b7100000000000000000000000000000000000000000000000000000000600052601160045260246000fd5b60006117ab82611571565b91506117b683611571565b9250826117c6576117c5611742565b5b828204905092915050565b60006117dc82611571565b91506117e783611571565b9250817fffffffffffffffffffffffffffffffffffffffffffffffffffffffffffffffff04831182151516156118205761181f611771565b5b828202905092915050565b600082825260208201905092915050565b7f4865616c746820726174696f2068617320746f2062652067726561746572207460008201527f68616e2031323525000000000000000000000000000000000000000000000000602082015250565b600061189860288361182b565b91506118a38261183c565b604082019050919050565b600060208201905081810360008301526118c78161188b565b9050919050565b60006060820190506118e3600083018661162c565b6118f0602083018561162c565b6118fd60408301846116af565b949350505050565b60008115159050919050565b61191a81611905565b811461192557600080fd5b50565b60008151905061193781611911565b92915050565b6000602082840312156119535761195261156c565b5b600061196184828501611928565b91505092915050565b600060408201905061197f600083018561162c565b61198c60208301846116af565b9392505050565b600061199e82611571565b91506119a983611571565b9250827fffffffffffffffffffffffffffffffffffffffffffffffffffffffffffffffff038211156119de576119dd611771565b5b828201905092915050565b6000819050919050565b6000819050919050565b6000611a18611a13611a0e846119e9565b6119f3565b611571565b9050919050565b611a28816119fd565b82525050565b6000604082019050611a436000830185611a1f565b611a5060208301846116af565b9392505050565b6000604082019050611a6c6000830185611a1f565b611a79602083018461162c565b9392505050565b600081519050611a8f8161157b565b92915050565b600060208284031215611aab57611aaa61156c565b5b6000611ab984828501611a80565b91505092915050565b6000611acd82611571565b9150611ad883611571565b925082821015611aeb57611aea611771565b5b828203905092915050565b6000611b11611b0c611b07846115fa565b6119f3565b6115fa565b9050919050565b6000611b2382611af6565b9050919050565b6000611b3582611b18565b9050919050565b611b4581611b2a565b82525050565b6000606082019050611b60600083018661162c565b611b6d6020830185611b3c565b611b7a60408301846116af565b94935050505056fea2646970667358221220f10b1b7b6187ba778bd4945d00bc5c2583be5c138852709f8ec5402cef453b9364736f6c63430008090033",
  "linkReferences": {},
  "deployedLinkReferences": {}
}