{
  "_format": "hh-sol-artifact-1",
  "contractName": "Switcher",
  "sourceName": "contracts/Switcher.sol",
  "abi": [
    {
      "inputs": [],
      "stateMutability": "payable",
      "type": "constructor"
    },
    {
      "anonymous": false,
      "inputs": [
        {
          "indexed": false,
          "internalType": "address",
          "name": "_beneficiary",
          "type": "address"
        },
        {
          "indexed": false,
          "internalType": "address",
          "name": "_owner",
          "type": "address"
        },
        {
          "indexed": false,
          "internalType": "uint256",
          "name": "_amount",
          "type": "uint256"
        }
      ],
      "name": "Adjustment",
      "type": "event"
    },
    {
      "anonymous": false,
      "inputs": [
        {
          "indexed": false,
          "internalType": "uint256",
          "name": "amount",
          "type": "uint256"
        },
        {
          "indexed": false,
          "internalType": "uint256",
          "name": "when",
          "type": "uint256"
        }
      ],
      "name": "Deposit",
      "type": "event"
    },
    {
      "anonymous": false,
      "inputs": [
        {
          "indexed": false,
          "internalType": "address",
          "name": "_beneficiary",
          "type": "address"
        },
        {
          "indexed": false,
          "internalType": "address",
          "name": "_owner",
          "type": "address"
        },
        {
          "indexed": false,
          "internalType": "uint256",
          "name": "_healthRatio",
          "type": "uint256"
        }
      ],
      "name": "Management",
      "type": "event"
    },
    {
      "anonymous": false,
      "inputs": [
        {
          "indexed": false,
          "internalType": "address",
          "name": "token",
          "type": "address"
        },
        {
          "indexed": false,
          "internalType": "uint256",
          "name": "healthRatio",
          "type": "uint256"
        }
      ],
      "name": "VerifySettings",
      "type": "event"
    },
    {
      "anonymous": false,
      "inputs": [
        {
          "indexed": false,
          "internalType": "uint256",
          "name": "amount",
          "type": "uint256"
        },
        {
          "indexed": false,
          "internalType": "uint256",
          "name": "when",
          "type": "uint256"
        }
      ],
      "name": "Withdrawal",
      "type": "event"
    },
    {
      "inputs": [],
      "name": "EULER_MAINNET",
      "outputs": [
        {
          "internalType": "address",
          "name": "",
          "type": "address"
        }
      ],
      "stateMutability": "view",
      "type": "function"
    },
    {
      "inputs": [],
      "name": "adjustment",
      "outputs": [],
      "stateMutability": "nonpayable",
      "type": "function"
    },
    {
      "inputs": [],
      "name": "approve",
      "outputs": [],
      "stateMutability": "nonpayable",
      "type": "function"
    },
    {
      "inputs": [
        {
          "internalType": "address",
          "name": "",
          "type": "address"
        }
      ],
      "name": "balances",
      "outputs": [
        {
          "internalType": "uint256",
          "name": "",
          "type": "uint256"
        }
      ],
      "stateMutability": "view",
      "type": "function"
    },
    {
      "inputs": [],
      "name": "borrowedToken",
      "outputs": [
        {
          "internalType": "address",
          "name": "",
          "type": "address"
        }
      ],
      "stateMutability": "view",
      "type": "function"
    },
    {
      "inputs": [],
      "name": "collateralToken",
      "outputs": [
        {
          "internalType": "address",
          "name": "",
          "type": "address"
        }
      ],
      "stateMutability": "view",
      "type": "function"
    },
    {
      "inputs": [
        {
          "internalType": "uint256",
          "name": "amount",
          "type": "uint256"
        },
        {
          "internalType": "uint256",
          "name": "healthRatio",
          "type": "uint256"
        }
      ],
      "name": "deposit",
      "outputs": [],
      "stateMutability": "payable",
      "type": "function"
    },
    {
      "inputs": [
        {
          "internalType": "address",
          "name": "",
          "type": "address"
        }
      ],
      "name": "healthRatios",
      "outputs": [
        {
          "internalType": "uint256",
          "name": "",
          "type": "uint256"
        }
      ],
      "stateMutability": "view",
      "type": "function"
    },
    {
      "inputs": [],
      "name": "owner",
      "outputs": [
        {
          "internalType": "address payable",
          "name": "",
          "type": "address"
        }
      ],
      "stateMutability": "view",
      "type": "function"
    },
    {
      "inputs": [
        {
          "internalType": "uint256",
          "name": "amountToWithdraw",
          "type": "uint256"
        }
      ],
      "name": "withdraw",
      "outputs": [],
      "stateMutability": "nonpayable",
      "type": "function"
    }
  ],
  "bytecode": "0x608060405273693faec006aebcae7849141a2ea60c6dd8097e256000806101000a81548173ffffffffffffffffffffffffffffffffffffffff021916908373ffffffffffffffffffffffffffffffffffffffff16021790555073931172bb95549d0f29e10ae2d079aba3c63318b3600160006101000a81548173ffffffffffffffffffffffffffffffffffffffff021916908373ffffffffffffffffffffffffffffffffffffffff16021790555073b4fbf271143f4fbf7b91a5ded31805e42b2208d6600260006101000a81548173ffffffffffffffffffffffffffffffffffffffff021916908373ffffffffffffffffffffffffffffffffffffffff160217905550733ebc39b84b1f856fafe9803a9e1eae7da016da36600360006101000a81548173ffffffffffffffffffffffffffffffffffffffff021916908373ffffffffffffffffffffffffffffffffffffffff160217905550600360009054906101000a900473ffffffffffffffffffffffffffffffffffffffff1673ffffffffffffffffffffffffffffffffffffffff16638948874960008054906101000a900473ffffffffffffffffffffffffffffffffffffffff166040518263ffffffff1660e01b8152600401620001d4919062000407565b60206040518083038186803b158015620001ed57600080fd5b505afa15801562000202573d6000803e3d6000fd5b505050506040513d601f19601f820116820180604052508101906200022891906200045a565b600460006101000a81548173ffffffffffffffffffffffffffffffffffffffff021916908373ffffffffffffffffffffffffffffffffffffffff160217905550600360009054906101000a900473ffffffffffffffffffffffffffffffffffffffff1673ffffffffffffffffffffffffffffffffffffffff16631b300582600260009054906101000a900473ffffffffffffffffffffffffffffffffffffffff166040518263ffffffff1660e01b8152600401620002e7919062000407565b60206040518083038186803b1580156200030057600080fd5b505afa15801562000315573d6000803e3d6000fd5b505050506040513d601f19601f820116820180604052508101906200033b91906200045a565b600560006101000a81548173ffffffffffffffffffffffffffffffffffffffff021916908373ffffffffffffffffffffffffffffffffffffffff16021790555033600660006101000a81548173ffffffffffffffffffffffffffffffffffffffff021916908373ffffffffffffffffffffffffffffffffffffffff1602179055506200048c565b600073ffffffffffffffffffffffffffffffffffffffff82169050919050565b6000620003ef82620003c2565b9050919050565b6200040181620003e2565b82525050565b60006020820190506200041e6000830184620003f6565b92915050565b600080fd5b6200043481620003e2565b81146200044057600080fd5b50565b600081519050620004548162000429565b92915050565b60006020828403121562000473576200047262000424565b5b6000620004838482850162000443565b91505092915050565b610e6d806200049c6000396000f3fe6080604052600436106100915760003560e01c80638da5cb5b116100595780638da5cb5b14610167578063b2016bd414610192578063c710ccd6146101bd578063e2bbb158146101e8578063ec7852161461020457610091565b806312424e3f1461009657806327e235e3146100ad5780632e1a7d4d146100ea578063451ee4a11461011357806373c97f051461012a575b600080fd5b3480156100a257600080fd5b506100ab61022f565b005b3480156100b957600080fd5b506100d460048036038101906100cf9190610a13565b6102ff565b6040516100e19190610a59565b60405180910390f35b3480156100f657600080fd5b50610111600480360381019061010c9190610aa0565b610317565b005b34801561011f57600080fd5b50610128610585565b005b34801561013657600080fd5b50610151600480360381019061014c9190610a13565b610587565b60405161015e9190610a59565b60405180910390f35b34801561017357600080fd5b5061017c61059f565b6040516101899190610aee565b60405180910390f35b34801561019e57600080fd5b506101a76105c5565b6040516101b49190610b18565b60405180910390f35b3480156101c957600080fd5b506101d26105e9565b6040516101df9190610b18565b60405180910390f35b61020260048036038101906101fd9190610b33565b61060f565b005b34801561021057600080fd5b5061021961098a565b6040516102269190610b18565b60405180910390f35b60008054906101000a900473ffffffffffffffffffffffffffffffffffffffff1673ffffffffffffffffffffffffffffffffffffffff1663095ea7b3307fffffffffffffffffffffffffffffffffffffffffffffffffffffffffffffffff6040518363ffffffff1660e01b81526004016102aa929190610b73565b602060405180830381600087803b1580156102c457600080fd5b505af11580156102d8573d6000803e3d6000fd5b505050506040513d601f19601f820116820180604052508101906102fc9190610bd4565b50565b60076020528060005260406000206000915090505481565b7fbf2ed60bd5b5965d685680c01195c9514e4382e28e3a5a2d2d5244bf59411b934742604051610348929190610c01565b60405180910390a1600260009054906101000a900473ffffffffffffffffffffffffffffffffffffffff1673ffffffffffffffffffffffffffffffffffffffff1663095ea7b3600160009054906101000a900473ffffffffffffffffffffffffffffffffffffffff167fffffffffffffffffffffffffffffffffffffffffffffffffffffffffffffffff6040518363ffffffff1660e01b81526004016103ef929190610b73565b602060405180830381600087803b15801561040957600080fd5b505af115801561041d573d6000803e3d6000fd5b505050506040513d601f19601f820116820180604052508101906104419190610bd4565b50600560009054906101000a900473ffffffffffffffffffffffffffffffffffffffff1673ffffffffffffffffffffffffffffffffffffffff1663d8aed14560007fffffffffffffffffffffffffffffffffffffffffffffffffffffffffffffffff6040518363ffffffff1660e01b81526004016104c0929190610c6f565b600060405180830381600087803b1580156104da57600080fd5b505af11580156104ee573d6000803e3d6000fd5b50505050600460009054906101000a900473ffffffffffffffffffffffffffffffffffffffff1673ffffffffffffffffffffffffffffffffffffffff1663441a3e706000836040518363ffffffff1660e01b8152600401610550929190610c6f565b600060405180830381600087803b15801561056a57600080fd5b505af115801561057e573d6000803e3d6000fd5b5050505050565b565b60086020528060005260406000206000915090505481565b600660009054906101000a900473ffffffffffffffffffffffffffffffffffffffff1681565b60008054906101000a900473ffffffffffffffffffffffffffffffffffffffff1681565b600260009054906101000a900473ffffffffffffffffffffffffffffffffffffffff1681565b60008054906101000a900473ffffffffffffffffffffffffffffffffffffffff1673ffffffffffffffffffffffffffffffffffffffff166323b872dd3330856040518463ffffffff1660e01b815260040161066c93929190610c98565b602060405180830381600087803b15801561068657600080fd5b505af115801561069a573d6000803e3d6000fd5b505050506040513d601f19601f820116820180604052508101906106be9190610bd4565b5060008054906101000a900473ffffffffffffffffffffffffffffffffffffffff1673ffffffffffffffffffffffffffffffffffffffff1663095ea7b373931172bb95549d0f29e10ae2d079aba3c63318b37fffffffffffffffffffffffffffffffffffffffffffffffffffffffffffffffff6040518363ffffffff1660e01b815260040161074e929190610b73565b602060405180830381600087803b15801561076857600080fd5b505af115801561077c573d6000803e3d6000fd5b505050506040513d601f19601f820116820180604052508101906107a09190610bd4565b5081600760003373ffffffffffffffffffffffffffffffffffffffff1673ffffffffffffffffffffffffffffffffffffffff16815260200190815260200160002060008282546107f09190610cfe565b9250508190555080600860003373ffffffffffffffffffffffffffffffffffffffff1673ffffffffffffffffffffffffffffffffffffffff16815260200190815260200160002081905550600460009054906101000a900473ffffffffffffffffffffffffffffffffffffffff1673ffffffffffffffffffffffffffffffffffffffff1663e2bbb1586000606485856108899190610d54565b6108939190610ddd565b6040518363ffffffff1660e01b81526004016108b0929190610c6f565b600060405180830381600087803b1580156108ca57600080fd5b505af11580156108de573d6000803e3d6000fd5b50505050600360009054906101000a900473ffffffffffffffffffffffffffffffffffffffff1673ffffffffffffffffffffffffffffffffffffffff166373f0b437600073693faec006aebcae7849141a2ea60c6dd8097e256040518363ffffffff1660e01b8152600401610954929190610e0e565b600060405180830381600087803b15801561096e57600080fd5b505af1158015610982573d6000803e3d6000fd5b505050505050565b600160009054906101000a900473ffffffffffffffffffffffffffffffffffffffff1681565b600080fd5b600073ffffffffffffffffffffffffffffffffffffffff82169050919050565b60006109e0826109b5565b9050919050565b6109f0816109d5565b81146109fb57600080fd5b50565b600081359050610a0d816109e7565b92915050565b600060208284031215610a2957610a286109b0565b5b6000610a37848285016109fe565b91505092915050565b6000819050919050565b610a5381610a40565b82525050565b6000602082019050610a6e6000830184610a4a565b92915050565b610a7d81610a40565b8114610a8857600080fd5b50565b600081359050610a9a81610a74565b92915050565b600060208284031215610ab657610ab56109b0565b5b6000610ac484828501610a8b565b91505092915050565b6000610ad8826109b5565b9050919050565b610ae881610acd565b82525050565b6000602082019050610b036000830184610adf565b92915050565b610b12816109d5565b82525050565b6000602082019050610b2d6000830184610b09565b92915050565b60008060408385031215610b4a57610b496109b0565b5b6000610b5885828601610a8b565b9250506020610b6985828601610a8b565b9150509250929050565b6000604082019050610b886000830185610b09565b610b956020830184610a4a565b9392505050565b60008115159050919050565b610bb181610b9c565b8114610bbc57600080fd5b50565b600081519050610bce81610ba8565b92915050565b600060208284031215610bea57610be96109b0565b5b6000610bf884828501610bbf565b91505092915050565b6000604082019050610c166000830185610a4a565b610c236020830184610a4a565b9392505050565b6000819050919050565b6000819050919050565b6000610c59610c54610c4f84610c2a565b610c34565b610a40565b9050919050565b610c6981610c3e565b82525050565b6000604082019050610c846000830185610c60565b610c916020830184610a4a565b9392505050565b6000606082019050610cad6000830186610b09565b610cba6020830185610b09565b610cc76040830184610a4a565b949350505050565b7f4e487b7100000000000000000000000000000000000000000000000000000000600052601160045260246000fd5b6000610d0982610a40565b9150610d1483610a40565b9250827fffffffffffffffffffffffffffffffffffffffffffffffffffffffffffffffff03821115610d4957610d48610ccf565b5b828201905092915050565b6000610d5f82610a40565b9150610d6a83610a40565b9250817fffffffffffffffffffffffffffffffffffffffffffffffffffffffffffffffff0483118215151615610da357610da2610ccf565b5b828202905092915050565b7f4e487b7100000000000000000000000000000000000000000000000000000000600052601260045260246000fd5b6000610de882610a40565b9150610df383610a40565b925082610e0357610e02610dae565b5b828204905092915050565b6000604082019050610e236000830185610c60565b610e306020830184610b09565b939250505056fea26469706673582212207b11224b5377eaeacb2365a938b8444f7622c1bcc310c6066f316daa5ec88eed64736f6c63430008090033",
  "linkReferences": {},
  "deployedLinkReferences": {}
}